:020000040000FA
:0400000007EF00F016
:0A00080028821CED06F00AEF06F056
:1008000000200000DDEC05F0000E836E000E846E0B
:1008100090EC05F04AEC06F08190819406EC05F02E
:1008200056EC06F08F0E196E19C018F018C017F0AC
:1008300017C016F016C015F015C014F0000E1E6E8D
:100840001EC01DF01DC01CF01CC01BF01BC01AF008
:100850001AC024F0000E236E23C022F022C021F023
:1008600021C020F020C01FF01FC013F0000E266E24
:10087000000E256E5AEF04F056EC06F0010E1F6EC6
:100880007BEF04F056EC06F0010E206E7BEF04F0D7
:1008900056EC06F0010E216E7BEF04F056EC06F0EC
:1008A000010E226E7BEF04F056EC06F0010E236E73
:1008B0007BEF04F02450116E126A1250000AD8B473
:1008C00064EF04F07BEF04F01150040AD8B43CEF5D
:1008D00004F0030AD8B442EF04F00E0AD8B448EF8B
:1008E00004F0050AD8B44EEF04F0030AD8B454EF6C
:1008F00004F07BEF04F01F04D8A481EF04F083EF31
:1009000004F091EF04F0150E0A6E000E0B6E1A0E35
:100910000C6E000E0D6E1F0E0E6E000E0F6E57EC5D
:1009200005F02004D8A497EF04F099EF04F0A7EFA6
:1009300004F0160E0A6E000E0B6E1B0E0C6E000EEF
:100940000D6E200E0E6E000E0F6E57EC05F021049A
:10095000D8A4ADEF04F0AFEF04F0BDEF04F0170E34
:100960000A6E000E0B6E1C0E0C6E000E0D6E210E2C
:100970000E6E000E0F6E57EC05F02204D8A4C3EFE4
:1009800004F0C5EF04F0D3EF04F0180E0A6E000E69
:100990000B6E1D0E0C6E000E0D6E220E0E6E000EF6
:1009A0000F6E57EC05F02304D8A4D9EF04F0DBEF69
:1009B00004F0E9EF04F0190E0A6E000E0B6E1E0E25
:1009C0000C6E000E0D6E230E0E6E000E0F6E57ECA9
:1009D00005F0140E0A6E000E0B6E240E0C6E000E47
:1009E0000D6E130E0E6E000E0F6E57EC05F0330EEB
:1009F000126EBB0E116EE00EE82EFED7112EFCD744
:100A0000122EFAD75AEF04F007EF00F08D90400E47
:100A10002EEC06F08D800E0E2EEC06F00A0E2EEC5B
:100A200006F01F0E2EEC06F01F0E2EEC06F01F0E29
:100A30002EEC06F00A0E2EEC06F00A0E2EEC06F056
:100A4000000E2EEC06F0020E086E450E076EAA0E82
:100A5000E82EFED7072EFCD7082EFAD78D90480E29
:100A60002EEC06F08D800A0E2EEC06F01F0E2EECFA
:100A700006F0150E2EEC06F01F0E2EEC06F0110EF1
:100A80002EEC06F01F0E2EEC06F00A0E2EEC06F0F1
:100A9000000E2EEC06F0020E086E450E076EAA0E32
:100AA000E82EFED7072EFCD7082EFAD712000AC070
:100AB000D9FF0BC0DAFFDF50F4EC05F00AC0D9FF14
:100AC0000BC0DAFFDF6E0CC0D9FF0DC0DAFF0F0ECE
:100AD000DF646DEF05F06FEF05F083EF05F00AC0FE
:100AE000D9FF0BC0DAFF8F0EDF6E0CC0D9FF0DC02F
:100AF000DAFF000EDF6E0EC0D9FF0FC0DAFF000E66
:100B0000DF6E8FEF05F00CC0D9FF0DC0DAFFDF50AC
:100B1000106E10280CC0D9FF0DC0DAFFDF6E120076
:100B20008D908D92620E086E660EE82EFED7082E0E
:100B3000FCD7030E836E8D828D92210E086E760E89
:100B4000E82EFED7082EFCD700D08D828D92C80EDD
:100B500000D0E82EFDD78D828D92C80E00D0E82EF1
:100B6000FDD7020E836E8D828D92380E2EEC06F02C
:100B7000060E2EEC06F00C0E2EEC06F04AEC06F0FB
:100B800012008D80CEEF05F007C0F6FF08C0F7FF1A
:100B90000800F5502EEC06F0074A082A07C0F6FFB9
:100BA00008C0F7FF0800F5500009D8A4DAEF05F0F7
:100BB000DCEF05F0C4EF05F01200DF0E926EFA0EC6
:100BC000936E9468000E956E0C0E966ED08EC00ECD
:100BD000F26E9D8A9F8A240EAC6E900EAB6E000E54
:100BE000B86E810EAF6E1200096E8D9009282EEC42
:100BF00006F0010E076E080E086EC1EC05F08D9030
:100C000009502EEC06F009068D80090E2EEC06F038
:100C100009501200CA0EF66E0C0EF76E000EF86E3A
:100C20000900F5CF27F0266A256A28902892000E41
:100C3000F86E000102EF04F006009EAA22EF06F013
:100C400024EF06F02CEF06F0AECF04F004505FEC7A
:100C500006F09E9A27C0ADFF28921100066E070E7F
:100C6000056E7D0EE82EFED7052EFCD700F006C0DF
:100C700083FF8D828D921200026E070E016E7D0E33
:100C8000E82EFED7012EFCD700F002C083FF8D8234
:100C90008D9212008D90010E2EEC06F00D0E076E57
:100CA000FC0EE82EFED7072EFCD712008D908F0E7B
:100CB0002EEC06F08D80090E2EEC06F01200036E6D
:0B0CC0008D8003503CEC06F012004851
:020000040020DA
:08000000FFFFFFFFFFFFFFFF00
:020000040030CA
:0E000000040C181EFF0081FF0FC00FE00F4020
:00000001FF
