:020000040000FA
:0400000007EF00F016
:0A0008003182CAED06F0B8EF06F0F1
:10080000002000008BEC06F0000E836E000E846E5C
:100810003EEC06F0F8EC06F08190819479EC05F05E
:1008200018EC07F08F0E176E17C016F016C015F0F3
:1008300015C014F0CF0E1C6E1CC01BF01BC01AF0AC
:100840001AC019F019C018F0000E246E24C023F04D
:1008500023C022F022C021F021C020F020C01FF0D0
:100860001FC01EF01EC01DF01DC02DF0000E2C6E0E
:100870002CC02BF02BC02AF02AC029F029C028F068
:1008800028C027F027C026F026C025F025C013F089
:10089000000E2F6E000E2E6E7EEF04F00FEC07F0B0
:1008A000010E286EABEF04F018EC07F0010E256E78
:1008B000ABEF04F00FEC07F0010E296EABEF04F084
:1008C00018EC07F0010E266EABEF04F00FEC07F00A
:1008D000010E2A6EABEF04F00FEC07F0010E2B6E49
:1008E000ABEF04F018EC07F0010E276EABEF04F04D
:1008F0000FEC07F0010E2C6EABEF04F02D50116ED3
:10090000126A1250000AD8B488EF04F0ABEF04F07A
:100910001150020AD8B44EEF04F0060AD8B454EFCE
:1009200004F0020AD8B45AEF04F00E0AD8B460EF0B
:1009300004F0020AD8B466EF04F0010AD8B46CEFF0
:1009400004F0060AD8B472EF04F0020AD8B478EFC3
:1009500004F0ABEF04F02504D8A4B1EF04F0B3EF3A
:1009600004F0C1EF04F0150E0A6E000E0B6E1D0EA2
:100970000C6E000E0D6E250E0E6E000E0F6E05EC49
:1009800006F02604D8A4C7EF04F0C9EF04F0D7EFAF
:1009900004F0160E0A6E000E0B6E1E0E0C6E000E8C
:1009A0000D6E260E0E6E000E0F6E05EC06F027047F
:1009B000D8A4DDEF04F0DFEF04F0EDEF04F0170E44
:1009C0000A6E000E0B6E1F0E0C6E000E0D6E270EC3
:1009D0000E6E000E0F6E05EC06F02804D8A4F3EF9F
:1009E00004F0F5EF04F003EF05F0180E0A6E000EA8
:1009F0000B6E200E0C6E000E0D6E280E0E6E000E8D
:100A00000F6ECAEC05F02904D8A409EF05F00BEF2E
:100A100005F019EF05F0190E0A6E000E0B6E210E8F
:100A20000C6E000E0D6E290E0E6E000E0F6ECAECCF
:100A300005F02A04D8A41FEF05F021EF05F02FEFF1
:100A400005F01A0E0A6E000E0B6E220E0C6E000ED2
:100A50000D6E2A0E0E6E000E0F6ECAEC05F02B0402
:100A6000D8A435EF05F037EF05F045EF05F01B0E84
:100A70000A6E000E0B6E230E0C6E000E0D6E2B0E0A
:100A80000E6E000E0F6ECAEC05F02C04D8A44BEFCE
:100A900005F04DEF05F05BEF05F01C0E0A6E000E41
:100AA0000B6E240E0C6E000E0D6E2C0E0E6E000ED4
:100AB0000F6ECAEC05F0140E0A6E000E0B6E2D0EB2
:100AC0000C6E000E0D6E130E0E6E000E0F6E05EC0A
:100AD00006F01A0E126E5E0E116E6E0EE82EFED726
:100AE000112EFCD7122EFAD700D07EEF04F007EFBC
:100AF00000F08D90400EDCEC06F08D800E0EDCECEC
:100B000006F00A0EDCEC06F01F0EDCEC06F01F0E01
:100B1000DCEC06F01F0EDCEC06F00A0EDCEC06F056
:100B20000A0EDCEC06F0000EDCEC06F0020E086E9D
:100B3000450E076EAA0EE82EFED7072EFCD7082E0C
:100B4000FAD78D90480EDCEC06F08D800A0EDCECB6
:100B500006F01F0EDCEC06F0150EDCEC06F01F0EA6
:100B6000DCEC06F0110EDCEC06F01F0EDCEC06F0FF
:100B70000A0EDCEC06F0000EDCEC06F0020E086E4D
:100B8000450E076EAA0EE82EFED7072EFCD7082EBC
:100B9000FAD712000AC0D9FF0BC0DAFFDF50A2EC6F
:100BA00006F00AC0D9FF0BC0DAFFDF6E0CC0D9FF18
:100BB0000DC0DAFF0F0EDF64E0EF05F0E2EF05F0A5
:100BC000F8EF05F004EC07F00CC0D9FF0DC0DAFF18
:100BD000000EDF6E0EC0D9FF0FC0DAFF000EDF6E11
:100BE0000AC0D9FF0BC0DAFFCF0EDF6E04EF06F0AC
:100BF0000CC0D9FF0DC0DAFFDF50106E10280CC0FA
:100C0000D9FF0DC0DAFFDF6E12000AC0D9FF0BC09A
:100C1000DAFFDF50A2EC06F00AC0D9FF0BC0DAFF02
:100C2000DF6E0CC0D9FF0DC0DAFF0F0EDF641BEFC3
:100C300006F01DEF06F031EF06F00CC0D9FF0DC035
:100C4000DAFF000EDF6E0EC0D9FF0FC0DAFF000E14
:100C5000DF6E0AC0D9FF0BC0DAFF8F0EDF6E3DEFEB
:100C600006F00CC0D9FF0DC0DAFFDF50106E10285F
:100C70000CC0D9FF0DC0DAFFDF6E12008D908D928F
:100C8000620E086E660EE82EFED7082EFCD7030E05
:100C9000836E8D828D92210E086E760EE82EFED721
:100CA000082EFCD700D08D828D92C80E00D0E82E81
:100CB000FDD78D828D92C80E00D0E82EFDD7020E92
:100CC000836E8D828D92380EDCEC06F0060EDCEC25
:100CD00006F00C0EDCEC06F0F8EC06F012008D804D
:100CE0007CEF06F007C0F6FF08C0F7FF0800F550DC
:100CF000DCEC06F0074A082A07C0F6FF08C0F7FF39
:100D00000800F5500009D8A488EF06F08AEF06F035
:100D100072EF06F01200DF0E926EFA0E936E946878
:100D2000000E956E0C0E966ED08EC00EF26E9D8AE1
:100D30009F8A240EAC6E900EAB6E000EB86E810EC4
:100D4000AF6E1200096E8D900928DCEC06F0010EE2
:100D5000076E080E086E6FEC06F08D900950DCEC03
:100D600006F009068D80090EDCEC06F00950120031
:100D70004E0EF66E0E0EF76E000EF86E0900F5CFF1
:100D800030F02F6A2E6A31903192000EF86E000119
:100D900002EF04F006009EAAD0EF06F0D2EF06F0B4
:100DA000DAEF06F0AECF04F0045021EC07F09E9A83
:100DB00030C0ADFF31921100066E070E056E7D0E3C
:100DC000E82EFED7052EFCD700F006C083FF8D82EB
:100DD0008D921200026E070E016E7D0EE82EFED778
:100DE000012EFCD700F002C083FF8D828D9212008D
:100DF0008D90010EDCEC06F00D0E076EFC0EE82E59
:100E0000FED7072EFCD712008D90C00EDCEC06F04A
:100E1000010E076E080E086E6FEC06F012008D9042
:100E2000CF0EDCEC06F08D80090EDCEC06F0120033
:100E30008D908F0EDCEC06F08D80090EDCEC06F058
:0F0E40001200036E8D800350EAEC06F01200489A
:020000040020DA
:08000000FFFFFFFFFFFFFFFF00
:020000040030CA
:0E000000040C181EFF0081FF0FC00FE00F4020
:00000001FF
