:020000040000FA
:0400000007EF00F016
:0A00080019821AED06F008EF06F069
:1008000000200000F1EC05F0000E836E000E846EF7
:1008100079EC05F048EC06F08190819428EC05F025
:1008200054EC06F08F0E106E10C011F011C012F0D3
:1008300012C013F013C015F015C014F0000E0F6EA7
:10084000000E0E6E0EC00CF00FC00DF01A0E0B6EE7
:100850005E0E0A6E6E0EE82EFED70A2EFCD70B2E09
:10086000FAD700D01450AAEC05F0146E76EF04F01D
:100870001550AAEC05F0156E000E0F6E010E0E6EEF
:10088000FCEF04F01350AAEC05F0136E000E0F6E8F
:10089000020E0E6EFCEF04F01250AAEC05F0126E80
:1008A000000E0F6E030E0E6EFCEF04F01150AAEC5A
:1008B00005F0116E000E0F6E040E0E6EFCEF04F0CC
:1008C0001050AAEC05F0106E000E0F6E050E0E6EA5
:1008D000FCEF04F0000E0F6E060E0E6EBF0E146ECF
:1008E000000E0D6E000E0C6EFCEF04F00CC00AF052
:1008F0000DC00BF00B50000AD8B481EF04F0FCEFF0
:1009000004F00A50040AD8B438EF04F00E0AD8B440
:1009100042EF04F0060AD8B44CEF04F01C0AD8B435
:1009200056EF04F0030AD8B460EF04F0040AD8B418
:100930006AEF04F0FCEF04F01550AAEC05F0156E18
:1009400022EF05F01450AAEC05F0146E1550AAEC35
:1009500005F0156E22EF05F01450AAEC05F0146EA8
:100960001550AAEC05F0156E1350AAEC05F0136EA5
:1009700022EF05F01450AAEC05F0146E1550AAEC05
:1009800005F0156E1350AAEC05F0136E1250AAEC88
:1009900005F0126E22EF05F01450AAEC05F0146E6B
:1009A0001550AAEC05F0156E1350AAEC05F0136E65
:1009B0001250AAEC05F0126E1150AAEC05F0116E5F
:1009C00022EF05F01450AAEC05F0146E1550AAECB5
:1009D00005F0156E1350AAEC05F0136E1250AAEC38
:1009E00005F0126E1150AAEC05F0116E1050AAEC31
:1009F00005F0106E22EF05F00EC00AF00FC00BF0EC
:100A00000B50000AD8B407EF05F022EF05F00A50AA
:100A1000010AD8B49CEF04F0030AD8B4A2EF04F0A2
:100A2000010AD8B4ACEF04F0070AD8B4BAEF04F066
:100A3000010AD8B4CCEF04F0030AD8B4E2EF04F012
:100A400022EF05F00C4A0D2A26EF04F007EF00F024
:100A50008D90400E2CEC06F08D800E0E2CEC06F0E6
:100A60000A0E2CEC06F01F0E2CEC06F01F0E2CECE0
:100A700006F01F0E2CEC06F00A0E2CEC06F00A0E07
:100A80002CEC06F0000E2CEC06F0020E086E450E63
:100A9000076EAA0EE82EFED7072EFCD7082EFAD72F
:100AA0008D90480E2CEC06F08D800A0E2CEC06F092
:100AB0001F0E2CEC06F0150E2CEC06F01F0E2CEC85
:100AC00006F0110E2CEC06F01F0E2CEC06F00A0EB0
:100AD0002CEC06F0000E2CEC06F0020E086E450E13
:100AE000076EAA0EE82EFED7072EFCD7082EFAD7DF
:100AF00012008D908D92620E086E660EE82EFED763
:100B0000082EFCD7030E836E8D828D92210E086E07
:100B1000760EE82EFED7082EFCD700D08D828D925F
:100B2000C80E00D0E82EFDD78D828D92C80E00D061
:100B3000E82EFDD7020E836E8D828D92380E2CEC3E
:100B400006F0060E2CEC06F00C0E2CEC06F048EC31
:100B500006F01200096E8D9009282CEC06F0010EAB
:100B6000076E080E086ED5EC05F0800E0960BBEF2D
:100B700005F0BDEF05F0C0EF05F08F0ED4EF05F0E6
:100B80008D9009282CEC06F0010E076E080E086EF9
:100B9000D5EC05F08D9009502CEC06F009068D80FF
:100BA000090E2CEC06F0095012008D80E2EF05F0E2
:100BB00007C0F6FF08C0F7FF0800F5502CEC06F060
:100BC000074A082A07C0F6FF08C0F7FF0800F550DB
:100BD0000009D8A4EEEF05F0F0EF05F0D8EF05F02E
:100BE0001200DF0E926EFA0E936E9468000E956EF0
:100BF0000C0E966ED08EC00EF26E9D8A9F8A240EC9
:100C0000AC6E900EAB6E000EB86E810EAF6E120021
:100C1000C60EF66E0C0EF76E000EF86E0900F5CFDC
:100C200018F0176A166A19901992000EF86E0001F2
:100C300002EF04F006009EAA20EF06F022EF06F075
:100C40002AEF06F0AECF04F004505DEC06F09E9A59
:100C500018C0ADFF19921100066E070E056E7D0ECD
:100C6000E82EFED7052EFCD700F006C083FF8D824C
:100C70008D921200026E070E016E7D0EE82EFED7D9
:100C8000012EFCD700F002C083FF8D828D921200EE
:100C90008D90010E2CEC06F00D0E076EFC0EE82E6A
:100CA000FED7072EFCD712008D908F0E2CEC06F08D
:100CB0008D80090E2CEC06F01200036E8D8003501F
:070CC0003AEC06F0120048B7
:020000040020DA
:08000000FFFFFFFFFFFFFFFF00
:020000040030CA
:0E000000040C181EFF0081FF0FC00FE00F4020
:00000001FF
